:03000000020C07E8
:0C0C0700787FE4F6D8FD758120020B8692
:0A0C1F0030313233343536373839BE
:030C3100DFFE22C1
:0D0AF4003EFE120BD4C2B4C2B37FC87E0018
:100B0100AD07AC06ED1DAE0470011C4E600C7FF507
:0B0B1100120C317FF5120C3180EA223B
:100BF7007590FFC2B5D2B6C2B700D2B7E59033221F
:0E0B67007F38120B757F057E00120B017F3860
:100B7500120BF740FBC2B5C2B6D2B78F9000C2B711
:010B8500224D
:100BE600120BF740FBD2B5C2B6D2B78F9000C2B790
:010BF60022DC
:0C0C13007F01120B757F057E00020B01B3
:100B4300AE07ED7005EE24808003EE24C0FF120B88
:100B5300751208F6FF600C120BE6740129F9E43AEA
:040B6300FA80EE2204
:030BA300FFAD099A
:100BA600AE07AC03ED7005EE24808003EE24C0FF93
:080BB600120B75AF04020BE6FF
:080A31008F088D098A0A8B0B66
:100A3900780C7C007D007BFF7A0C791F7E007F0A91
:100A49001208D0AE0AAF0B7C277D1012090F740C67
:100A59002FF8E6FBAD09AF08120BA6AE0AAF0B7C67
:100A6900277D1012090F7E037FE8CFCDCFCECCCEE4
:100A790012090F740C2FF8E6FBE50804120BA3AE5C
:100A89000AAF0B7C037DE812090F7E007F64CFCD8E
:100A9900CFCECCCE12090F740C2FF8E6FBE5082453
:100AA90002120BA3AE0AAF0B7C007D6412090F7E04
:100AB900007F0ACFCDCFCECCCE12090F740C2FF800
:100AC900E6FBE5082403FFAD09120BA6E50824049B
:100AD900FFC007AE0AAF0B7C007D0A12090F740C28
:0B0AE9002DF8E6FBD007AD09020BA6BC
:100B1C00120B677F057E00120B01120B677F081208
:100B2C000B757F01120B757F06120B751F7E001261
:070B3C000B017F0C020B7599
:080C29008F993099FDC2992258
:100BBE00758920759850758DFD858D8BE4F587D2DE
:060BCE00AFD2ACD28E2272
:100BD400C3EF9440EE6480948050068FA0D2A7D2D5
:020BE400A62247
:100B8600E4F590C2B3C2B4120BBE20A6FD7F907EE0
:0D0B960001120B0120A6F3C2B3C2B480ED22
:030023000209646B
:10096400C0E0C0D075D000C001C002C004C005C042
:0309740006C007B3
:10097700C200209803020A1EC298E599B44B077F6C
:100987004B120C29D2008599167F887E1320980D6B
:1009970020000AEF1FAC0670011E4C70F0C298A928
:1009A700997E137F8820980D20000AEF1FAC0670F0
:1009B700011E4C70F0C298AD997E137F8820980D68
:1009C70020000AEF1FAA0670011E4A70F0C298ACF9
:1009D70099E516647F704230A7077FF3120C2980D0
:1009E700387FF4120C29E964807012EDFEEC7A006E
:1009F7002400FFEA120AF4D2B4C2B3801CE964816E
:100A07007017AF05EDFEAD047C00E42DFFEC120A74
:090A1700F4D2B3C2B48002C2990A
:100A2000D007D006D005D004D002D001D0D0D0E07D
:010A30003293
:10080000E709F608DFFA8046E709F208DFFA803EDA
:1008100088828C83E709F0A3DFFA8032E309F608C7
:10082000DFFA8078E309F208DFFA807088828C832F
:10083000E309F0A3DFFA806489828A83E0A3F608E3
:10084000DFFA805889828A83E0A3F208DFFA804CBD
:1008500080D280FA80C680D4806980F28033801094
:1008600080A680EA809A80A880DA80E280CA8033FD
:1008700089828A83ECFAE493A3C8C582C8CCC58375
:10088000CCF0A3C8C582C8CCC583CCDFE9DEE78045
:100890000D89828A83E493A3F608DFF9ECFAA9F0C4
:1008A000EDFB2289828A83ECFAE0A3C8C582C8CC1A
:1008B000C583CCF0A3C8C582C8CCC583CCDFEADE33
:1008C000E880DB89828A83E493A3F208DFF980CC95
:1008D00088F0EF60010E4E60C388F0ED2402B4048E
:1008E0000050B9F582EB2402B4040050AF23234535
:0608F00082239008507302
:1008F600BB010689828A83E0225002E722BBFE0200
:09090600E32289828A83E4932232
:10090F00BC000BBE0029EF8DF084FFADF022E4CCCC
:10091F00F875F008EF2FFFEE33FEEC33FCEE9DEC95
:10092F00984005FCEE9DFE0FD5F0E9E4CEFD22EDDB
:10093F00F8F5F0EE8420D21CFEADF075F008EF2F25
:10094F00FFED33FD4007985006D5F0F222C398FD16
:05095F000FD5F0EA22B3
:00000001FF
