:100B05004175746F20506172747320426F78005A7A
:100B1500484841534F20646576656C6F70004E6F91
:100B2500204D6F746F7220506F77657200456A654E
:100B35006374204C6F636174696F6E3A0042616340
:100B45006B204C6F636174696F6E3A0030313233DC
:060B550034353637383953
:030C7E00DFFE2274
:100C1800AE07AF061EEF600C7FF5120C7E7FF51253
:050C28000C7E80EE22AD
:100C50007590FFC2B5D2B6C2B700D2B7E5903322C5
:0C0BCA007F38120BD67F05120C187F3804
:100BD600120C5040FBC2B5C2B6D2B78F9000C2B756
:010BE60022EC
:100C3F00120C5040FBD2B5C2B6D2B78F9000C2B7DC
:010C4F002282
:0A0C6C007F01120BD67F05020C1861
:050B5B007BFFE4FDFF3B
:100B6000AE07ED7005EE24808003EE24C0FF120B6B
:100B7000D61208F6FF600C120C3F740129F9E43A12
:040B8000FA80EE22E7
:030BE700FFAD0C53
:100BEA00AE07AC03ED7005EE24808003EE24C0FF4F
:080BFA00120BD6AF04020C3F00
:080A42008F0B8D0C8A0D8B0E49
:100A4A00780F7C007D007BFF7A0B79517E007F0A4C
:100A5A001208D0AE0DAF0E7C277D1012090F740F4D
:100A6A002FF8E6FBAD0CAF0B120BEAAE0DAF0E7C06
:100A7A00277D1012090F7E037FE8CFCDCFCECCCED3
:100A8A0012090F740F2FF8E6FBE50B04120BE7AE01
:100A9A000DAF0E7C037DE812090F7E007F64CFCD77
:100AAA00CFCECCCE12090F740F2FF8E6FBE50B243C
:100ABA0002120BE7AE0DAF0E7C007D6412090F7EA9
:100ACA00007F0ACFCDCFCECCCE12090F740F2FF8EC
:100ADA00E6FBE50B2403FFAD0C120BEAE50B24043D
:100AEA00FFC007AE0DAF0E7C007D0A12090F740F0E
:0B0AFA002DF8E6FBD007AD0C020BEA64
:100B8400120BCA7F05120C18120BCA7F08120BD65F
:100B94007F01120BD67F06120BD61F120C187F0C86
:030BA400020BD66B
:080C76008F993099FDC299220B
:100C0200758920759850758DFD858D8BE4F587D299
:060C1200AFD2ACD28E222D
:100C2D00C3EF9440EE6480948050068FA0D2A7D27B
:020C3D00A622ED
:100BA700E4F590C2B3C2B4120B84120C02120C6C9F
:100BB7007A0B7905120B5B7A0B79140DE4FF120B94
:030BC7006080FE4D
:030023000209646B
:10096400C0E0C0F0C083C082C0D075D000C000C059
:0D09740001C002C003C004C005C006C007DA
:10098100C200209803020A25C298C2AFE599B44B70
:10099100077F4B120C76D200AF992098033000FAF2
:1009A100C2988599082098033000FAC29885990960
:1009B1002098033000FAC29885990AEF647F70602D
:1009C10030A711120C6C7A0B7923120B5B7FF31297
:1009D1000C76804C7FF4120C76E5086480700B1263
:1009E1000C6C7BFF7A0B7932800FE50864817030E3
:1009F100120C6C7BFF7A0B7942E4FDFF120B60E570
:100A010009FE7C00E4250AFBEC3EFA0DE4FF120A24
:100A110042E509FE7C00E4250AFFEC3EFE120C2DA6
:060A2100D2AF8002C29971
:100A2700D007D006D005D004D003D002D001D00023
:0B0A3700D0D0D082D083D0F0D0E032CD
:03000000020C608F
:0C0C6000787FE4F6D8FD758120020BA718
:10080000E709F608DFFA8046E709F208DFFA803EDA
:1008100088828C83E709F0A3DFFA8032E309F608C7
:10082000DFFA8078E309F208DFFA807088828C832F
:10083000E309F0A3DFFA806489828A83E0A3F608E3
:10084000DFFA805889828A83E0A3F208DFFA804CBD
:1008500080D280FA80C680D4806980F28033801094
:1008600080A680EA809A80A880DA80E280CA8033FD
:1008700089828A83ECFAE493A3C8C582C8CCC58375
:10088000CCF0A3C8C582C8CCC583CCDFE9DEE78045
:100890000D89828A83E493A3F608DFF9ECFAA9F0C4
:1008A000EDFB2289828A83ECFAE0A3C8C582C8CC1A
:1008B000C583CCF0A3C8C582C8CCC583CCDFEADE33
:1008C000E880DB89828A83E493A3F208DFF980CC95
:1008D00088F0EF60010E4E60C388F0ED2402B4048E
:1008E0000050B9F582EB2402B4040050AF23234535
:0608F00082239008507302
:1008F600BB010689828A83E0225002E722BBFE0200
:09090600E32289828A83E4932232
:10090F00BC000BBE0029EF8DF084FFADF022E4CCCC
:10091F00F875F008EF2FFFEE33FEEC33FCEE9DEC95
:10092F00984005FCEE9DFE0FD5F0E9E4CEFD22EDDB
:10093F00F8F5F0EE8420D21CFEADF075F008EF2F25
:10094F00FFED33FD4007985006D5F0F222C398FD16
:05095F000FD5F0EA22B3
:00000001FF
